:100000000204555F5F5F5F2E5F5F4320414D4249B1
:10001000454E54005F5F5F5F2E5F5F43204F564544
:050020004E202020002D
:10002500C000788500D8FDD00022C000C001792825
:100035007868D8FED9FADAF6D001D00022D2941227
:100045000025C29422A2E79283A2E69282A2E592BB
:1000550081A2E49280120042120025A2E39283A2BB
:10006500E29282A2E19281A2E0928012004222D223
:100075009302004AC29302004AC294C0027A28122F
:10008500002FD00274331200797433120079743260
:100095001200797428120079740C12007974011217
:1000A5000079C0027A0212002FD00222E493600682
:1000B500120074A380F62244404480020079C0E017
:1000C500E8C4540F4430120074E8540F4430120051
:0400D50074D0E022E1
:1000D900C0E0C0D0C000C001C002E4F538F539F570
:1000E9003AF53BF53C7A20E533A2E779047830E626
:1000F90033F608D9FA79057838E636D4F608D9F905
:10010900DAE5D002D001D000D0D0D0E022C0E0C0E2
:10011900D0C000C001C002E4F538F539F53AF53B25
:10012900F53C7A20E533A2E779047830E633F6081E
:10013900D9FA79057838C0D0E6243320E70224D0EB
:1001490020E30224FDD0D033F608D9EADAD6D0026A
:10015900D001D000D0D0D0E022C0E0C0D0C000C0D3
:1001690001C0027A207905C3783CE613C0D030E794
:100179000224D030E30224FDF618D0D0D9EC79045A
:100189007833E613F618D9FADADBD002D001D000B9
:10019900D0D0D0E022C0E0C0D0E5302534F530E53C
:1001A900313535F531E5323536F532E5333537F563
:1001B90033D0D0D0E022C0E0C0D0C3E5309534F5CB
:1001C90030E5319535F531E5329536F532E533953A
:1001D90037F533D0D0D0E022C0E0C0D0C3E53095A8
:1001E90034E5319535E5329536E53395379200D0CA
:1001F900D0D0E022C0E0C0D0C3E5349530E53595D4
:1002090031E5369532E53795339200D0D0D0E022EA
:10021900C0E0C0D0C200C3E53495307014E535950F
:1002290031700EE53695327008E53795337002D294
:1002390000D0D0D0E0221202192000030201FD22D1
:100249001202192000030201E122C0E0C0F0C0D06F
:10025900C000C001C002C003E5308534F0A4F8A98C
:10026900F0E5318534F0A429F9E435F0FAE5308573
:1002790035F0A429F9E5F03AFAE433FBE53285349F
:10028900F0A42AFAE5F03BFBE5318535F0A42AFA1A
:10029900E5F03BFBE5308536F0A42AFAE5F03BFBB7
:1002A900E5338534F0A42BFBE5328535F0A42BFB2F
:1002B900E5318536F0A42BFBE5308537F0A42BFB1F
:1002C9008B338A3289318830D003D002D001D000F3
:1002D900D0D0D0F0D0E022C0E0C0D0C000C001C072
:1002E90002C003C0047C20E4F8F9FAFBC3E530330B
:1002F900F530E53133F531E53233F532E53333F5B0
:1003090033E833F8E933F9EA33FAEB33FBC3E89519
:1003190034E99535EA9536EB95374013E89534F885
:10032900E99535F9EA9536FAEB9537FB433001DC67
:10033900BBD004D003D002D001D000D0D0D0E0226D
:1003490075AC0075AD0075B30075B40075B1007575
:10035900B200438E1043878075985253C4DF538986
:100369000F438920758DF7D28EC28C438E0853892D
:10037900F043890143B38253B47D43B11053B2EFC3
:1003890043B32053B4DF53E8F043E80775F600435D
:10039900F6A143E10122C28CC28D758CBF758A28F2
:1003A900D28C308DFD2212039FDAFB22C0E074014A
:1003B900141200BED0E0C000A83A1200C3D000C099
:1003C90000A8391200C3D000C0E0742E120074D006
:1003D900E0C000A8381200C3D00022C0E0740114A4
:1003E9001200BCD0E0C000A83A1200C3D000C0007F
:1003F900A8391200C3D000C0E0742E120074D0E0F6
:10040900C000A8381200C3D000223099FDC299F566
:100419009922740D120413740A12041322C0E0C441
:10042900540F2430120413D0E0540F243012041353
:1004390022C2EFD2EE30EFFDE5C2540FF8E5C3C496
:10044900C0E0540FF9D0E054F048F82275817F12CA
:10045900034912007EC0E07401141200BED0E0C04E
:1004690083C082C0E09000031200B1D0E0D082D0F6
:1004790083C0E07401141200BCD0E0C083C082C004
:10048900E09000141200B1D0E0D082D08353E8F09C
:1004990043E80012043A8841894253E8F043E807E7
:1004A90012043A8830893175320075330075345039
:1004B9007535A075360075370012025385413485AC
:1004C90042357536007537001202E07534A475356A
:1004D9006A7536007537001201BF85303D85313E9A
:1004E90085323F8533401200D91203B553E8F043F2
:1004F900E80512043A883089317532007533007580
:1005090034507535A0753600753700120253854190
:10051900348542357536007537001202E07534E8C6
:1005290075350375360075370012025375347B75BE
:1005390035007536007537001202E0853D34853E79
:1005490035853F3685403712019E1200D91203E4E2
:10055900E53A120426742E120413E5391204261200
:0F056900041B7AFA1203AF7AFA1203AF02049658
:00000001FF
